:0A0000000C9452000C9400000C94C4
:10000A0000000C9400000C9400000C9400000C9466
:10001A0000000C9400000C9400000C9400000C9456
:10002A0000000C9400000C9400000C9400000C9446
:10003A0000000C9400000C9400000C9400000C9436
:10004A0000000C9400000C9400001027E8036400E0
:10005A000A000100001000011000010020204443A2
:10006A0020566F6C746D6574657200566F6C74619E
:10007A006765203A2025730001002D4E414E004944
:10008A004E46000080C00F006002660001006F0249
:10009A008200020073028E000000F894EE27ECBB87
:1000AA00F1E0FBBFEBBFE5BF8DE0A2E0BB27ED931C
:1000BA008A95E9F780E098E0A0E6ED930197E9F7E1
:1000CA00E0E9F0E085919591009761F0A591B591ED
:1000DA0005901590BF01F00105900D920197E1F787
:1000EA00FB01F0CFEFE5EDBFE8E0EEBFC0E6D2E0FE
:1000FA000C94AA00E0EEE6B9E0E4E7B908951A9391
:10010A000A93E4B1F0E08F01E5B1E370FE2FE0E07D
:10011A000E0F1F1FF80109911991089524971A9338
:10012A000A93EDDF8F010E945504DF01CB01E8EB52
:10013A00FEE569E473E40E941F060E945A040E94C5
:10014A005F0419810881269608956E97A0E10E949E
:10015A00BA03D0DFE0E0EA93A1E00E947B03A0E6C5
:10016A00B2E00E94A903E0E0EA93A0E00E947B03C8
:10017A00D5DFA7EAB8EE82E191E40E94D105EA8FC1
:10018A00FB8F6C8F7D8F0E94B006E2E0EA93DE015E
:10019A0055960E94EA00FE01FA93EA93E5E7F0E039
:1001AA00FA93EA93FE017496662777270E94B006AF
:1001BA0084E00E9427032896DE010E94A903A4EF87
:1001CA00B1E00E94D104CFCFFFCFBA93AA9324976C
:1001DA00E0E0E883E983EA83EFE3EB831A930A9387
:1001EA00EB85FC85EF3FAFEFFA0739F40E94640410
:1001FA00A4E8B0E00E942F04ADC0EF3FAFE7FA07D2
:10020A0039F40E946404A5E8B0E00E942F04A2C059
:10021A00AC85AA2362F4E985FA856B857C850E9400
:10022A00DB040E9469040E946E04EDE2EC93A88547
:10023A00A73010F0E6E0E8871885E12F1150E0308A
:10024A0039F00E9475040E947A040E945A04F5CF7C
:10025A000E9481040E9481050E94690410E0E0E086
:10026A00F0E060E87FE30E945A040E9481040E9441
:10027A00640688F00E9475040E9487040E945A044A
:10028A001F5F173238F00E946404A9E8B0E00E94A8
:10029A002F0460C0EACF103029F40E946E04E0E314
:1002AA00EC932DC0E12F1150E03049F10E94750402
:1002BA000E947A04A0E0B0E080E09FE30E948105FA
:1002CA00DF01CB010E9418040E945A040E94810493
:1002DA000E941F060E940E050E2F0E946E04E02F38
:1002EA00E05DEC93E02FF0E00E9475040E94550453
:1002FA000E94D1050E948E040E949304D3CFE88500
:10030A00E03021F10E946E04EEE2EC93E885E150C0
:10031A00E887EF5FD9F00E948E040E9487040E944A
:10032A006904E985FA856B857C850E940E050E2F86
:10033A000E946E04E02FE05DEC93E02FF0E00E9453
:10034A008E040E9455040E949304E0CFAE81BF81BF
:10035A00E0E0EC93198108812D960895BA93AA9347
:10036A001A930A93AA81BB8112960E949906309722
:10037A0059F1AA81BB8114960E9499068F01309780
:10038A0061F00230E0E01E0798F0F80131978F0122
:10039A00AA81BB811496ED93FC93AA81BB81129624
:1003AA00ED91FD913196FE93EE933197AC81A08346
:1003BA00AA81BB810E949906FF232AF0ED91FD9143
:1003CA003196FE93EE9306C0AA81BB81EFEFFFEF51
:1003DA00ED93FC931981088125960895BA93AA93FF
:1003EA0026970E94C70610E0AC85BD85E0E0F0E0E4
:1003FA00ED93FC93EA89FB893196EA8BFB8B319763
:10040A00E4912E2FE03009F415C1E12FE03039F4E0
:10041A00253211F411E002C00E9498040AC1E130A9
:10042A00A9F4253219F40E94980402C112E040E0AE
:10043A0000E02D3211F401E0FCC02B3211F44BE242
:10044A00F8C0203211F440E2F4C002C0E23039F4BC
:10045A0050E013E0203311F40068EBC003C0E3302E
:10046A0009F0E7C0203310F02A3308F007C0AAE0E9
:10047A005A9F502DE22FE0535E0FDBC0E22FE33686
:10048A0049F40E949F04E889F989A481AA930E94E9
:10049A00A504CEC0E33741F40E949F040E94AB0436
:1004AA000E943C041E2F0AC0E03761F40E949F0498
:1004BA000E94AB040E9448041E2F086002600F7756
:1004CA0030E034C0E43611F0E93611F4046002C0B9
:1004DA00E53731F4E4E5F0E0EE83FF8315E00CC084
:1004EA00E83511F4086003C0E83709F0A1C0EEE569
:1004FA00F0E0EE83FF8314E002FF14C00E949F0421
:10050A000E94B504AB85AA233AF4EA85FB850E94CA
:10051A008806EA87FB874DE2403011F01F5F01C071
:10052A000B7F04C00E949F040E94B50400FD11C005
:10053A00151778F407FF08C002FF04C00B7F242FA9
:10054A00115001C020E301C020E20E9498045150DA
:10055A00EFCF312F01FF17C03030A1F003FF06C0E3
:10056A00EE81FF812591EE83FF8305C0AE81BF81B5
:10057A002D91AE83BF830E949804503009F05150E8
:10058A003150EACF4BC020E3EE81FF810E949D06E5
:10059A00E887F987EE81FF813296EE83FF83E8854B
:1005AA00F985AA85BB85AE17BF0750F02F5FA885CE
:1005BA00B985EA85FB85EA1BFB0BEA87FB87EFCF48
:1005CA002A3328F003FF02C0295F01C0295D04FD18
:1005DA001AC0213320F4A885B985119709F409C0F6
:1005EA00531710F000FF01C013C020E207FF0BC031
:1005FA0020E3006102FF07C00B7F4A930E94A50413
:10060A00503009F051500E949804503009F051506E
:10061A003150A885B985129708F0B5CF00FF08C0F8
:10062A00503031F05150E0E2EA930E94A504F8CF2D
:10063A0010E0E0CEAC85BD850E9499060E94CE06E8
:10064A0064960895FF92F82E26970E94C9060E9482
:10065A00BD04309719F4EFEFFFEF23C0DE011696C1
:10066A000E9484068D010E94BD04EE83FF83E0E0B0
:10067A00E887E987DE011A960E9484060E94990695
:10068A00FA93EA931A930A93E3EBF1E0FA93EA9363
:10069A00DE011A96A3DE9F01AE81BF81E0E0EC93F2
:1006AA00F9010E94D0062A96FF900895AA93E2B310
:1006BA00EF70AE2FE881E07FEA2BE2BB82E08A95F9
:1006CA00F1F7929A82E08A95F1F7929882E08A95F8
:1006DA00F1F776C0AA93A881E9DFE881E295E88379
:1006EA00A881E4DF81E18A95F1F76AC0AA93E881DB
:1006FA00F0E0ED58FD4FE081A981AE0FEBDF5980A4
:10070A00488022960895A2E00E94C404ACE0E2DF89
:10071A00A1E00E94C404E0E04E2E5E2E0895AA9342
:10072A00A881AA3011F0571448F0E0E0EA93439404
:10073A00A42DDCDFA881AA3009F442C05394909A10
:10074A00A881C8DF90983CC0BA93AA931A93A9814A
:10075A00BA81ED91A983BA831E2FE03019F0A12F37
:10076A00DEDFF5CF188123960895AA93E1B3E06FEF
:10077A00E1BB8A9A889A899A9298909891987880F7
:10078A00E881E058E0937502E881E054E09376024C
:10079A00A4E1B0E00E94D1040E94CA040E94CA04E3
:1007AA000E94CA04A0E282DF81E28A95F1F7A8E2F8
:1007BA0091DFA4E08FDFA5E88DDFA6E08BDFA3DF62
:1007CA00219608950E94B5067B816A81F981E881A4
:1007DA0077FB770F67FD7160972F9E5781F078F04E
:1007EA00983190F4AA27BB27882708948795B7954C
:1007FA00A7959A95D1F7EA23FB23682305C0E894C5
:10080A007727EE27FF2766276F77769508F46068C3
:10081A0077F9A991B99189919991EA17FB07680724
:10082A00790797FB08950E94B5060E94A6060E94C2
:10083A00E7030E94AB0619F40E94A10609C0E6F775
:10084A000E94A106A0E0B0E080E89FE30E947A053A
:10085A0024960895BA93AA93E991F991A991B99125
:10086A00CD0105900D920020E1F7FC010895BA939D
:10087A00AA93A991B991EE27FF276D91662311F0EA
:10088A003196FBCF0895BA93AA93AA27BB27E99179
:10089A00F9910590002011F01196FBCFFD01089502
:1008AA000E9494060E9447050895EA83FB836C839D
:1008BA007D830895EA81FB816C817D810895EE81B3
:1008CA00FF81FA93EA930895E987FA876B877C8711
:1008DA000895AE81BF811196AE83BF8311970895A3
:1008EA00AA81BB818C819D810895EDECFCEC6CECB6
:1008FA007DE30E94D1050895DDDFA985BA858B8540
:10090A009C850895E0E0F0E060E271E40E94D10580
:10091A000895A985BA858B859C8508950E94BA0693
:10092A000E947A05D1CF2A93AD85BE85EF85F889D5
:10093A0009950895E889F9893497E88BF98B089520
:10094A00AD85BE85EF85F88909950895A889B98985
:10095A0014960E949906EE83FF83AE81BF810895A3
:10096A00A889B98914960E949906EA87FB8708958F
:10097A00DE011C960E9484060E94990608950E9430
:10098A006F03A3E0B0E00C94D104A0E30E945B03E0
:10099A0081E28A95F1F70895109639F08AEF90E08E
:1009AA000197F1F7A8951197C9F708953097604014
:1009BA00704009F070580895552342F4503811F4E4
:1009CA00E0FF04C03196691F791F6BF050E8572782
:1009DA0011F45F93CFC05F3F31F0660F000C57955B
:1009EA006795752F08955F9300200AF0CFC0C8C09D
:1009FA0050E8192E1522880F991F9527550F8795AC
:100A0A0050E8072E0522660F771F7527550F679541
:100A1A000895689401C0E8945F93F2DF703818F083
:100A2A007F3F08F4A7C056E1571BAAF451955830E6
:100A3A000EF4593030F0EFEFFFEF6FEF7FE777F901
:100A4A001AC077275523B9F0EE0FFF1F661F771FCD
:100A5A005A95D1F710C07727583028F0EF2FF62F84
:100A6A00672F5850F9CF552331F076956795F7954A
:100A7A00E7955A95D1F700200AF449D15F91089574
:100A8A00689401C0E894309760407040B1F0002447
:100A9A0026F0772312F400943AD1172E7EE1112022
:100AAA0032F07A95EE0FFF1F661F111CF9CFEF2F58
:100ABA00F62F612D5F938ADF5F9108954F93AF01FF
:100ACA00FD01DA01AB01BC01CA01402D012C142E33
:100ADA004F910895EA0FFB1F681F0895E095F0955E
:100AEA006095EF5FFF4F6F4F08955F9381DF9038F6
:100AFA0071F150E8152604C05F937ADF903839F116
:100B0A00703821F1572F591B2BF112F4D7DFFACF86
:100B1A00583118F0AA27BB278827583028F0AB2F5E
:100B2A00B82F88275850F9CF552329F08695B795BD
:100B3A00A7955A95D9F7502D512572F0CBDF38F485
:100B4A006795F795E795739513F420C0B7DF3EDFF5
:100B5A005F910895D8F7FBCFEA1BFB0B680B51F0A6
:100B6A0010F40094BBDF662392F3EE0FFF1F661F9B
:100B7A007A95CBF7EE27FF27662777275F910895A7
:100B8A00EFEFFFEF6FE77FEF5F910895EFEFFFEF72
:100B9A006FE77FE75F9108955F932ADF703851F31B
:100BAA00903841F301240894791F23F41CF30020A0
:100BBA003AF3ECCF0F921F932F933F934F93112742
:100BCA0022279927689FA0018F9F302D410D591F19
:100BDA006B9F300D411D591F8E9F27D0BF9F25D077
:100BEA006A9F23D0BE9F1DD0AF9F1BD0AE9F110D11
:100BFA00291F391F491F591FE32FF42F652F522F21
:100C0A004F913F912F911F910F9066232AF0550F14
:100C1A00EE1FFF1F661F02C073954BF2CDDE5F9178
:100C2A000895100D211D391F02C0200D311D491FC5
:100C3A00591F08955F93DCDE703821F411200AF4FD
:100C4A009FCFA4CF903809F495CF01240894970B2D
:100C5A001BF4D4F30020F3CF792F1F932F933F93E4
:100C6A004F9311241127222733274427552790E22F
:100C7A00AE17BF078607410730F0AE1BBF0B860BC6
:100C8A00410B089401C08894551F221F331F111C61
:100C9A00AA1FBB1F881F441F9A9551F7F901612D9E
:100CAA004F913F912F911F91662332F0550FEE1FFE
:100CBA00FF1F661F7A9543F27FDE5F91089599239D
:100CCA009AF0772342F0971748F029F4AE17BF0736
:100CDA00860720F031F0989488940895989408949F
:100CEA0008951894889408957723C2F7971798F36C
:100CFA00A9F7EA17FB07680788F399F3ECCF0024F2
:100D0A00AF0DB01D0895F195E195F0400895F09565
:100D1A0060957095E195FF4F6F4F7F4F08956F2F44
:100D2A00660F660B762F0895ED91FC911197089541
:100D3A000590F491E02D0895E881F9816A817B811B
:100D4A000895A881B9818A819B810895E883F983EE
:100D5A006A837B8308957A936A93FA93EA93089550
:100D6A009A938A93BA93AA930895182E862F612D7F
:100D7A00192E972F712D1B2EBF2FF12D1A2EAE2F44
:100D8A00E12D08955A934A933A932A931A930A9310
:100D9A0008955D814C813B812A81198108810895DA
:00000001FF
